:0300000002009665
:0C009600787FE4F6D8FD7581210200DDC2
:100196000A0AC0F9A4B0999282F8809004148040AB
:0601A60020100218000009
:0E01BE00E4FEEEC39F50077D0DDDFE0E80F4C3
:0101CC002210
:10000600AE08AF097C037DE81201228E208F21AE57
:1000160008AF097C037DE81201227E007F64CFCD04
:10002600CFCECCCE1201228E1E8F1FAE08AF097C1A
:10003600007D641201227E007F0ACFCDCFCECCCECA
:100046001201228E1A8F1BAE08AF097C007D0A12A0
:1000560001228C1C8D1D8514A0740A2521F8E6F555
:10006600807F321201BE8515A0740A251FF8E6F5B9
:10007600801201BE8516A0740A251BF8E6F58012CB
:1000860001BE8517A0740A251DF8E6F5800201BE9B
:0300030002017780
:10017700C0E0C0D00519E51970020518B40F0BE5EA
:0F01870018B42706751800751900D0D0D0E032D3
:1001AD0075880175A88185180885190912000680C2
:0101BD00F54C
:1000A2000201ADE493A3F8E493A34003F68001F2C6
:1000B20008DFF48029E493A3F85407240CC8C3335F
:1000C200C4540F4420C8834004F456800146F6DF2E
:1000D200E4800B0102040810204080900196E47E27
:1000E200019360BCA3FF543F30E509541FFEE49323
:1000F200A360010ECF54C025E060A840B8E493A3EA
:10010200FAE493A3F8E493A3C8C582C8CAC583CA14
:10011200F0A3C8C582C8CAC583CADFE9DEE780BECC
:0101AC000052
:10012200BC000BBE0029EF8DF084FFADF022E4CCC1
:10013200F875F008EF2FFFEE33FEEC33FCEE9DEC8A
:10014200984005FCEE9DFE0FD5F0E9E4CEFD22EDD0
:10015200F8F5F0EE8420D21CFEADF075F008EF2F1A
:10016200FFED33FD4007985006D5F0F222C398FD0B
:050172000FD5F0EA22A8
:00000001FF
